{
  "contractName": "Subscription",
  "abi": [
    {
      "constant": true,
      "inputs": [],
      "name": "amountPerPeriod",
      "outputs": [
        {
          "name": "",
          "type": "uint256"
        }
      ],
      "payable": false,
      "stateMutability": "view",
      "type": "function"
    },
    {
      "constant": true,
      "inputs": [],
      "name": "provider",
      "outputs": [
        {
          "name": "",
          "type": "address"
        }
      ],
      "payable": false,
      "stateMutability": "view",
      "type": "function"
    },
    {
      "constant": true,
      "inputs": [],
      "name": "paymentPeriod",
      "outputs": [
        {
          "name": "",
          "type": "uint256"
        }
      ],
      "payable": false,
      "stateMutability": "view",
      "type": "function"
    },
    {
      "constant": true,
      "inputs": [],
      "name": "subscriber",
      "outputs": [
        {
          "name": "",
          "type": "address"
        }
      ],
      "payable": false,
      "stateMutability": "view",
      "type": "function"
    },
    {
      "constant": true,
      "inputs": [],
      "name": "token",
      "outputs": [
        {
          "name": "",
          "type": "address"
        }
      ],
      "payable": false,
      "stateMutability": "view",
      "type": "function"
    },
    {
      "inputs": [
        {
          "name": "tokenAddress",
          "type": "address"
        },
        {
          "name": "subscriberAddress",
          "type": "address"
        },
        {
          "name": "providerAddress",
          "type": "address"
        },
        {
          "name": "initialPaymentPeriod",
          "type": "uint256"
        }
      ],
      "payable": false,
      "stateMutability": "nonpayable",
      "type": "constructor"
    },
    {
      "constant": false,
      "inputs": [],
      "name": "collectPayment",
      "outputs": [],
      "payable": false,
      "stateMutability": "nonpayable",
      "type": "function"
    }
  ],
  "bytecode": "0x6060604052341561000f57600080fd5b60405160808061050583398101604052808051906020019091908051906020019091908051906020019091908051906020019091905050836000806101000a81548173ffffffffffffffffffffffffffffffffffffffff021916908373ffffffffffffffffffffffffffffffffffffffff16021790555082600160006101000a81548173ffffffffffffffffffffffffffffffffffffffff021916908373ffffffffffffffffffffffffffffffffffffffff16021790555081600260006101000a81548173ffffffffffffffffffffffffffffffffffffffff021916908373ffffffffffffffffffffffffffffffffffffffff16021790555080600381905550505050506103e3806101226000396000f300606060405260043610610078576000357c0100000000000000000000000000000000000000000000000000000000900463ffffffff168063029c6c9f1461007d578063085d4883146100a657806310b0624a146100fb5780631e638f2e1461012457806320e0363014610139578063fc0c546a1461018e575b600080fd5b341561008857600080fd5b6100906101e3565b6040518082815260200191505060405180910390f35b34156100b157600080fd5b6100b96101e9565b604051808273ffffffffffffffffffffffffffffffffffffffff1673ffffffffffffffffffffffffffffffffffffffff16815260200191505060405180910390f35b341561010657600080fd5b61010e61020f565b6040518082815260200191505060405180910390f35b341561012f57600080fd5b610137610215565b005b341561014457600080fd5b61014c61036c565b604051808273ffffffffffffffffffffffffffffffffffffffff1673ffffffffffffffffffffffffffffffffffffffff16815260200191505060405180910390f35b341561019957600080fd5b6101a1610392565b604051808273ffffffffffffffffffffffffffffffffffffffff1673ffffffffffffffffffffffffffffffffffffffff16815260200191505060405180910390f35b60045481565b600260009054906101000a900473ffffffffffffffffffffffffffffffffffffffff1681565b60035481565b6000809054906101000a900473ffffffffffffffffffffffffffffffffffffffff1673ffffffffffffffffffffffffffffffffffffffff166323b872dd600160009054906101000a900473ffffffffffffffffffffffffffffffffffffffff16600260009054906101000a900473ffffffffffffffffffffffffffffffffffffffff166004546040518463ffffffff167c0100000000000000000000000000000000000000000000000000000000028152600401808473ffffffffffffffffffffffffffffffffffffffff1673ffffffffffffffffffffffffffffffffffffffff1681526020018373ffffffffffffffffffffffffffffffffffffffff1673ffffffffffffffffffffffffffffffffffffffff1681526020018281526020019350505050602060405180830381600087803b151561035257600080fd5b5af1151561035f57600080fd5b5050506040518051905050565b600160009054906101000a900473ffffffffffffffffffffffffffffffffffffffff1681565b6000809054906101000a900473ffffffffffffffffffffffffffffffffffffffff16815600a165627a7a72305820ab6f84dcaa5b35ce1e871b7f48f5a9e3498bf28e3cd653179c34381672050fea0029",
  "source": "pragma solidity ^0.4.21;\nimport './SimpleToken.sol';\n\ncontract Subscription {\n\tSimpleToken public token;\n\taddress public subscriber;\n\taddress public provider;\n\tuint public paymentPeriod; // In seconds how long the provider has to wait withdraw\n\tuint public amountPerPeriod; // Amount in wei how many tokens can be transferred per period.\n\n\tfunction Subscription (\n\t\taddress tokenAddress, \n\t\taddress subscriberAddress,\n\t\taddress providerAddress, \n\t\tuint initialPaymentPeriod) {\n\t\ttoken = SimpleToken(tokenAddress);\n\t\tsubscriber = subscriberAddress;\n\t\tprovider = providerAddress;\n\t\tpaymentPeriod = initialPaymentPeriod;\n\t}\n\n\tfunction collectPayment() external {\n\t\ttoken.transferFrom(subscriber, provider, amountPerPeriod);\n\t}\n}",
  "sourcePath": "/Users/nieldlr/Coding/Projects/staketree/contract-experiments/contracts/Subscription.sol",
  "compiler": {
    "name": "solc",
    "version": "0.4.21+commit.dfe3193c.Emscripten.clang"
  },
  "schemaVersion": "2.0.0",
  "updatedAt": "2018-04-19T09:03:17.142Z"
}